{
  "_format": "hh-sol-artifact-1",
  "contractName": "LiquidStaking",
  "sourceName": "contracts/LiquidStaking.sol",
  "abi": [
    {
      "anonymous": false,
      "inputs": [
        {
          "indexed": true,
          "internalType": "address",
          "name": "owner",
          "type": "address"
        },
        {
          "indexed": true,
          "internalType": "address",
          "name": "spender",
          "type": "address"
        },
        {
          "indexed": false,
          "internalType": "uint256",
          "name": "value",
          "type": "uint256"
        }
      ],
      "name": "Approval",
      "type": "event"
    },
    {
      "anonymous": false,
      "inputs": [
        {
          "indexed": true,
          "internalType": "address",
          "name": "previousOwner",
          "type": "address"
        },
        {
          "indexed": true,
          "internalType": "address",
          "name": "newOwner",
          "type": "address"
        }
      ],
      "name": "OwnershipTransferred",
      "type": "event"
    },
    {
      "anonymous": false,
      "inputs": [
        {
          "indexed": true,
          "internalType": "address",
          "name": "from",
          "type": "address"
        },
        {
          "indexed": true,
          "internalType": "address",
          "name": "to",
          "type": "address"
        },
        {
          "indexed": false,
          "internalType": "uint256",
          "name": "value",
          "type": "uint256"
        }
      ],
      "name": "Transfer",
      "type": "event"
    },
    {
      "inputs": [
        {
          "internalType": "address",
          "name": "_owner",
          "type": "address"
        },
        {
          "internalType": "address",
          "name": "_spender",
          "type": "address"
        }
      ],
      "name": "allowance",
      "outputs": [
        {
          "internalType": "uint256",
          "name": "",
          "type": "uint256"
        }
      ],
      "stateMutability": "view",
      "type": "function"
    },
    {
      "inputs": [
        {
          "internalType": "address",
          "name": "_spender",
          "type": "address"
        },
        {
          "internalType": "uint256",
          "name": "_amount",
          "type": "uint256"
        }
      ],
      "name": "approve",
      "outputs": [
        {
          "internalType": "bool",
          "name": "",
          "type": "bool"
        }
      ],
      "stateMutability": "nonpayable",
      "type": "function"
    },
    {
      "inputs": [
        {
          "internalType": "address",
          "name": "_account",
          "type": "address"
        }
      ],
      "name": "balanceOf",
      "outputs": [
        {
          "internalType": "uint256",
          "name": "",
          "type": "uint256"
        }
      ],
      "stateMutability": "view",
      "type": "function"
    },
    {
      "inputs": [
        {
          "internalType": "uint256",
          "name": "_amount",
          "type": "uint256"
        }
      ],
      "name": "compoundStaked",
      "outputs": [],
      "stateMutability": "nonpayable",
      "type": "function"
    },
    {
      "inputs": [],
      "name": "decimals",
      "outputs": [
        {
          "internalType": "uint8",
          "name": "",
          "type": "uint8"
        }
      ],
      "stateMutability": "pure",
      "type": "function"
    },
    {
      "inputs": [
        {
          "internalType": "address",
          "name": "_spender",
          "type": "address"
        },
        {
          "internalType": "uint256",
          "name": "_subtractedValue",
          "type": "uint256"
        }
      ],
      "name": "decreaseAllowance",
      "outputs": [
        {
          "internalType": "bool",
          "name": "",
          "type": "bool"
        }
      ],
      "stateMutability": "nonpayable",
      "type": "function"
    },
    {
      "inputs": [],
      "name": "depositBufferedEther",
      "outputs": [],
      "stateMutability": "nonpayable",
      "type": "function"
    },
    {
      "inputs": [
        {
          "internalType": "uint256",
          "name": "_sharesAmount",
          "type": "uint256"
        }
      ],
      "name": "getPooledEthByShares",
      "outputs": [
        {
          "internalType": "uint256",
          "name": "",
          "type": "uint256"
        }
      ],
      "stateMutability": "view",
      "type": "function"
    },
    {
      "inputs": [
        {
          "internalType": "uint256",
          "name": "_ethAmount",
          "type": "uint256"
        }
      ],
      "name": "getSharesByPooledEth",
      "outputs": [
        {
          "internalType": "uint256",
          "name": "",
          "type": "uint256"
        }
      ],
      "stateMutability": "view",
      "type": "function"
    },
    {
      "inputs": [],
      "name": "getTotalPooledEther",
      "outputs": [
        {
          "internalType": "uint256",
          "name": "",
          "type": "uint256"
        }
      ],
      "stateMutability": "view",
      "type": "function"
    },
    {
      "inputs": [],
      "name": "getTotalShares",
      "outputs": [
        {
          "internalType": "uint256",
          "name": "",
          "type": "uint256"
        }
      ],
      "stateMutability": "view",
      "type": "function"
    },
    {
      "inputs": [
        {
          "internalType": "address",
          "name": "_spender",
          "type": "address"
        },
        {
          "internalType": "uint256",
          "name": "_addedValue",
          "type": "uint256"
        }
      ],
      "name": "increaseAllowance",
      "outputs": [
        {
          "internalType": "bool",
          "name": "",
          "type": "bool"
        }
      ],
      "stateMutability": "nonpayable",
      "type": "function"
    },
    {
      "inputs": [],
      "name": "name",
      "outputs": [
        {
          "internalType": "string",
          "name": "",
          "type": "string"
        }
      ],
      "stateMutability": "pure",
      "type": "function"
    },
    {
      "inputs": [],
      "name": "owner",
      "outputs": [
        {
          "internalType": "address",
          "name": "",
          "type": "address"
        }
      ],
      "stateMutability": "view",
      "type": "function"
    },
    {
      "inputs": [],
      "name": "renounceOwnership",
      "outputs": [],
      "stateMutability": "nonpayable",
      "type": "function"
    },
    {
      "inputs": [
        {
          "internalType": "address",
          "name": "_deposit",
          "type": "address"
        }
      ],
      "name": "setDeposit",
      "outputs": [],
      "stateMutability": "nonpayable",
      "type": "function"
    },
    {
      "inputs": [
        {
          "internalType": "address",
          "name": "_account",
          "type": "address"
        }
      ],
      "name": "sharesOf",
      "outputs": [
        {
          "internalType": "uint256",
          "name": "",
          "type": "uint256"
        }
      ],
      "stateMutability": "view",
      "type": "function"
    },
    {
      "inputs": [],
      "name": "submit",
      "outputs": [
        {
          "internalType": "uint256",
          "name": "",
          "type": "uint256"
        }
      ],
      "stateMutability": "payable",
      "type": "function"
    },
    {
      "inputs": [],
      "name": "symbol",
      "outputs": [
        {
          "internalType": "string",
          "name": "",
          "type": "string"
        }
      ],
      "stateMutability": "pure",
      "type": "function"
    },
    {
      "inputs": [],
      "name": "totalSupply",
      "outputs": [
        {
          "internalType": "uint256",
          "name": "",
          "type": "uint256"
        }
      ],
      "stateMutability": "view",
      "type": "function"
    },
    {
      "inputs": [
        {
          "internalType": "address",
          "name": "_recipient",
          "type": "address"
        },
        {
          "internalType": "uint256",
          "name": "_amount",
          "type": "uint256"
        }
      ],
      "name": "transfer",
      "outputs": [
        {
          "internalType": "bool",
          "name": "",
          "type": "bool"
        }
      ],
      "stateMutability": "nonpayable",
      "type": "function"
    },
    {
      "inputs": [
        {
          "internalType": "address",
          "name": "_sender",
          "type": "address"
        },
        {
          "internalType": "address",
          "name": "_recipient",
          "type": "address"
        },
        {
          "internalType": "uint256",
          "name": "_amount",
          "type": "uint256"
        }
      ],
      "name": "transferFrom",
      "outputs": [
        {
          "internalType": "bool",
          "name": "",
          "type": "bool"
        }
      ],
      "stateMutability": "nonpayable",
      "type": "function"
    },
    {
      "inputs": [
        {
          "internalType": "address",
          "name": "newOwner",
          "type": "address"
        }
      ],
      "name": "transferOwnership",
      "outputs": [],
      "stateMutability": "nonpayable",
      "type": "function"
    },
    {
      "inputs": [
        {
          "internalType": "uint256",
          "name": "_amount",
          "type": "uint256"
        }
      ],
      "name": "updateDepositState",
      "outputs": [],
      "stateMutability": "nonpayable",
      "type": "function"
    }
  ],
  "bytecode": "0x6080604052600060025560006004556000600555600060065534801561002457600080fd5b5061004161003661004660201b60201c565b61004e60201b60201c565b610114565b600033905090565b6000600360009054906101000a900473ffffffffffffffffffffffffffffffffffffffff16905081600360006101000a81548173ffffffffffffffffffffffffffffffffffffffff021916908373ffffffffffffffffffffffffffffffffffffffff1602179055508173ffffffffffffffffffffffffffffffffffffffff168173ffffffffffffffffffffffffffffffffffffffff167f8be0079c531659141344cd1fd0a4f28419497f9722a3daafe3b4186f6b6457e060405160405180910390a35050565b61213e80620001246000396000f3fe60806040526004361061014b5760003560e01c80637a28fb88116100b6578063c0483bf61161006f578063c0483bf6146104c1578063d5002f2e146104ea578063dd62ed3e14610515578063ecc1dcfb14610552578063f2fde38b14610569578063f5eb42dc146105925761014b565b80637a28fb881461038b57806385e67572146103c85780638da5cb5b146103f157806395d89b411461041c578063a457c2d714610447578063a9059cbb146104845761014b565b806337cfdaca1161010857806337cfdaca1461028857806339509351146102b35780633b80938e146102f05780635bcb2fc61461031957806370a0823114610337578063715018a6146103745761014b565b806306fdde0314610150578063095ea7b31461017b57806318160ddd146101b857806319208451146101e357806323b872dd14610220578063313ce5671461025d575b600080fd5b34801561015c57600080fd5b506101656105cf565b6040516101729190611aeb565b60405180910390f35b34801561018757600080fd5b506101a2600480360381019061019d919061185a565b61060c565b6040516101af9190611ad0565b60405180910390f35b3480156101c457600080fd5b506101cd610623565b6040516101da9190611c6d565b60405180910390f35b3480156101ef57600080fd5b5061020a60048036038101906102059190611896565b610632565b6040516102179190611c6d565b60405180910390f35b34801561022c57600080fd5b506102476004803603810190610242919061180b565b610687565b6040516102549190611ad0565b60405180910390f35b34801561026957600080fd5b50610272610780565b60405161027f9190611c88565b60405180910390f35b34801561029457600080fd5b5061029d610789565b6040516102aa9190611c6d565b60405180910390f35b3480156102bf57600080fd5b506102da60048036038101906102d5919061185a565b610798565b6040516102e79190611ad0565b60405180910390f35b3480156102fc57600080fd5b50610317600480360381019061031291906117a6565b61083d565b005b6103216108fd565b60405161032e9190611c6d565b60405180910390f35b34801561034357600080fd5b5061035e600480360381019061035991906117a6565b610992565b60405161036b9190611c6d565b60405180910390f35b34801561038057600080fd5b506103896109ac565b005b34801561039757600080fd5b506103b260048036038101906103ad9190611896565b610a34565b6040516103bf9190611c6d565b60405180910390f35b3480156103d457600080fd5b506103ef60048036038101906103ea9190611896565b610a89565b005b3480156103fd57600080fd5b50610406610b21565b6040516104139190611ab5565b60405180910390f35b34801561042857600080fd5b50610431610b4b565b60405161043e9190611aeb565b60405180910390f35b34801561045357600080fd5b5061046e6004803603810190610469919061185a565b610b88565b60405161047b9190611ad0565b60405180910390f35b34801561049057600080fd5b506104ab60048036038101906104a6919061185a565b610c75565b6040516104b89190611ad0565b60405180910390f35b3480156104cd57600080fd5b506104e860048036038101906104e39190611896565b610c8c565b005b3480156104f657600080fd5b506104ff610d3d565b60405161050c9190611c6d565b60405180910390f35b34801561052157600080fd5b5061053c600480360381019061053791906117cf565b610d4c565b6040516105499190611c6d565b60405180910390f35b34801561055e57600080fd5b50610567610dd3565b005b34801561057557600080fd5b50610590600480360381019061058b91906117a6565b610ef9565b005b34801561059e57600080fd5b506105b960048036038101906105b491906117a6565b610ff1565b6040516105c69190611c6d565b60405180910390f35b60606040518060400160405280601381526020017f4c6971756964205374616b65642045564d4f5300000000000000000000000000815250905090565b6000610619338484611003565b6001905092915050565b600061062d6111ce565b905090565b60008061063d6111ce565b90506000811415610652576000915050610682565b61067e81610670610661611200565b8661120a90919063ffffffff16565b61122090919063ffffffff16565b9150505b919050565b600080600160008673ffffffffffffffffffffffffffffffffffffffff1673ffffffffffffffffffffffffffffffffffffffff16815260200190815260200160002060003373ffffffffffffffffffffffffffffffffffffffff1673ffffffffffffffffffffffffffffffffffffffff1681526020019081526020016000205490508281101561074c576040517f08c379a000000000000000000000000000000000000000000000000000000000815260040161074390611b0d565b60405180910390fd5b610757858585611236565b610774853361076f86856112b990919063ffffffff16565b611003565b60019150509392505050565b60006012905090565b60006107936111ce565b905090565b6000610833338461082e85600160003373ffffffffffffffffffffffffffffffffffffffff1673ffffffffffffffffffffffffffffffffffffffff16815260200190815260200160002060008973ffffffffffffffffffffffffffffffffffffffff1673ffffffffffffffffffffffffffffffffffffffff168152602001908152602001600020546112cf90919063ffffffff16565b611003565b6001905092915050565b6108456112e5565b73ffffffffffffffffffffffffffffffffffffffff16610863610b21565b73ffffffffffffffffffffffffffffffffffffffff16146108b9576040517f08c379a00000000000000000000000000000000000000000000000000000000081526004016108b090611bcd565b60405180910390fd5b80600760006101000a81548173ffffffffffffffffffffffffffffffffffffffff021916908373ffffffffffffffffffffffffffffffffffffffff16021790555050565b60008033905060003490506000811161094b576040517f08c379a000000000000000000000000000000000000000000000000000000000815260040161094290611bed565b60405180910390fd5b600061095682610632565b90506000811415610965578190505b61096f83826112ed565b5081600460008282546109829190611cbf565b9250508190555080935050505090565b60006109a56109a08361141a565b610a34565b9050919050565b6109b46112e5565b73ffffffffffffffffffffffffffffffffffffffff166109d2610b21565b73ffffffffffffffffffffffffffffffffffffffff1614610a28576040517f08c379a0000000000000000000000000000000000000000000000000000000008152600401610a1f90611bcd565b60405180910390fd5b610a326000611462565b565b600080610a3f611200565b90506000811415610a54576000915050610a84565b610a8081610a72610a636111ce565b8661120a90919063ffffffff16565b61122090919063ffffffff16565b9150505b919050565b610a916112e5565b73ffffffffffffffffffffffffffffffffffffffff16610aaf610b21565b73ffffffffffffffffffffffffffffffffffffffff1614610b05576040517f08c379a0000000000000000000000000000000000000000000000000000000008152600401610afc90611bcd565b60405180910390fd5b8060066000828254610b179190611cbf565b9250508190555050565b6000600360009054906101000a900473ffffffffffffffffffffffffffffffffffffffff16905090565b60606040518060400160405280600781526020017f737445564d4f5300000000000000000000000000000000000000000000000000815250905090565b600080600160003373ffffffffffffffffffffffffffffffffffffffff1673ffffffffffffffffffffffffffffffffffffffff16815260200190815260200160002060008573ffffffffffffffffffffffffffffffffffffffff1673ffffffffffffffffffffffffffffffffffffffff16815260200190815260200160002054905082811015610c4d576040517f08c379a0000000000000000000000000000000000000000000000000000000008152600401610c4490611b8d565b60405180910390fd5b610c6a3385610c6586856112b990919063ffffffff16565b611003565b600191505092915050565b6000610c82338484611236565b6001905092915050565b610c946112e5565b73ffffffffffffffffffffffffffffffffffffffff16610cb2610b21565b73ffffffffffffffffffffffffffffffffffffffff1614610d08576040517f08c379a0000000000000000000000000000000000000000000000000000000008152600401610cff90611bcd565b60405180910390fd5b8060056000828254610d1a9190611da0565b925050819055508060066000828254610d339190611cbf565b9250508190555050565b6000610d47611200565b905090565b6000600160008473ffffffffffffffffffffffffffffffffffffffff1673ffffffffffffffffffffffffffffffffffffffff16815260200190815260200160002060008373ffffffffffffffffffffffffffffffffffffffff1673ffffffffffffffffffffffffffffffffffffffff16815260200190815260200160002054905092915050565b610ddb6112e5565b73ffffffffffffffffffffffffffffffffffffffff16610df9610b21565b73ffffffffffffffffffffffffffffffffffffffff1614610e4f576040517f08c379a0000000000000000000000000000000000000000000000000000000008152600401610e4690611bcd565b60405180910390fd5b600760009054906101000a900473ffffffffffffffffffffffffffffffffffffffff1673ffffffffffffffffffffffffffffffffffffffff1663d0e30db06004546040518263ffffffff1660e01b81526004016000604051808303818588803b158015610ebb57600080fd5b505af1158015610ecf573d6000803e3d6000fd5b505050505060045460056000828254610ee89190611cbf565b925050819055506000600481905550565b610f016112e5565b73ffffffffffffffffffffffffffffffffffffffff16610f1f610b21565b73ffffffffffffffffffffffffffffffffffffffff1614610f75576040517f08c379a0000000000000000000000000000000000000000000000000000000008152600401610f6c90611bcd565b60405180910390fd5b600073ffffffffffffffffffffffffffffffffffffffff168173ffffffffffffffffffffffffffffffffffffffff161415610fe5576040517f08c379a0000000000000000000000000000000000000000000000000000000008152600401610fdc90611b4d565b60405180910390fd5b610fee81611462565b50565b6000610ffc8261141a565b9050919050565b600073ffffffffffffffffffffffffffffffffffffffff168373ffffffffffffffffffffffffffffffffffffffff161415611073576040517f08c379a000000000000000000000000000000000000000000000000000000000815260040161106a90611c2d565b60405180910390fd5b600073ffffffffffffffffffffffffffffffffffffffff168273ffffffffffffffffffffffffffffffffffffffff1614156110e3576040517f08c379a00000000000000000000000000000000000000000000000000000000081526004016110da90611b6d565b60405180910390fd5b80600160008573ffffffffffffffffffffffffffffffffffffffff1673ffffffffffffffffffffffffffffffffffffffff16815260200190815260200160002060008473ffffffffffffffffffffffffffffffffffffffff1673ffffffffffffffffffffffffffffffffffffffff168152602001908152602001600020819055508173ffffffffffffffffffffffffffffffffffffffff168373ffffffffffffffffffffffffffffffffffffffff167f8c5be1e5ebec7d5bd14f71427d1e84f3dd0314c0f7b2291e5b200ac8c7c3b925836040516111c19190611c6d565b60405180910390a3505050565b60006111fb6005546111ed6006546004546112cf90919063ffffffff16565b6112cf90919063ffffffff16565b905090565b6000600254905090565b600081836112189190611d46565b905092915050565b6000818361122e9190611d15565b905092915050565b600061124182610632565b905061124e848483611528565b8273ffffffffffffffffffffffffffffffffffffffff168473ffffffffffffffffffffffffffffffffffffffff167fddf252ad1be2c89b69c2b068fc378daa952ba7f163c4a11628f55a4df523b3ef846040516112ab9190611c6d565b60405180910390a350505050565b600081836112c79190611da0565b905092915050565b600081836112dd9190611cbf565b905092915050565b600033905090565b60008073ffffffffffffffffffffffffffffffffffffffff168373ffffffffffffffffffffffffffffffffffffffff16141561135e576040517f08c379a000000000000000000000000000000000000000000000000000000000815260040161135590611c4d565b60405180910390fd5b6113788261136a611200565b6112cf90919063ffffffff16565b9050806002819055506113d2826000808673ffffffffffffffffffffffffffffffffffffffff1673ffffffffffffffffffffffffffffffffffffffff168152602001908152602001600020546112cf90919063ffffffff16565b6000808573ffffffffffffffffffffffffffffffffffffffff1673ffffffffffffffffffffffffffffffffffffffff1681526020019081526020016000208190555092915050565b60008060008373ffffffffffffffffffffffffffffffffffffffff1673ffffffffffffffffffffffffffffffffffffffff168152602001908152602001600020549050919050565b6000600360009054906101000a900473ffffffffffffffffffffffffffffffffffffffff16905081600360006101000a81548173ffffffffffffffffffffffffffffffffffffffff021916908373ffffffffffffffffffffffffffffffffffffffff1602179055508173ffffffffffffffffffffffffffffffffffffffff168173ffffffffffffffffffffffffffffffffffffffff167f8be0079c531659141344cd1fd0a4f28419497f9722a3daafe3b4186f6b6457e060405160405180910390a35050565b600073ffffffffffffffffffffffffffffffffffffffff168373ffffffffffffffffffffffffffffffffffffffff161415611598576040517f08c379a000000000000000000000000000000000000000000000000000000000815260040161158f90611b2d565b60405180910390fd5b600073ffffffffffffffffffffffffffffffffffffffff168273ffffffffffffffffffffffffffffffffffffffff161415611608576040517f08c379a00000000000000000000000000000000000000000000000000000000081526004016115ff90611bad565b60405180910390fd5b60008060008573ffffffffffffffffffffffffffffffffffffffff1673ffffffffffffffffffffffffffffffffffffffff1681526020019081526020016000205490508082111561168e576040517f08c379a000000000000000000000000000000000000000000000000000000000815260040161168590611c0d565b60405180910390fd5b6116a182826112b990919063ffffffff16565b6000808673ffffffffffffffffffffffffffffffffffffffff1673ffffffffffffffffffffffffffffffffffffffff16815260200190815260200160002081905550611734826000808673ffffffffffffffffffffffffffffffffffffffff1673ffffffffffffffffffffffffffffffffffffffff168152602001908152602001600020546112cf90919063ffffffff16565b6000808573ffffffffffffffffffffffffffffffffffffffff1673ffffffffffffffffffffffffffffffffffffffff1681526020019081526020016000208190555050505050565b60008135905061178b816120da565b92915050565b6000813590506117a0816120f1565b92915050565b6000602082840312156117b857600080fd5b60006117c68482850161177c565b91505092915050565b600080604083850312156117e257600080fd5b60006117f08582860161177c565b92505060206118018582860161177c565b9150509250929050565b60008060006060848603121561182057600080fd5b600061182e8682870161177c565b935050602061183f8682870161177c565b925050604061185086828701611791565b9150509250925092565b6000806040838503121561186d57600080fd5b600061187b8582860161177c565b925050602061188c85828601611791565b9150509250929050565b6000602082840312156118a857600080fd5b60006118b684828501611791565b91505092915050565b6118c881611dd4565b82525050565b6118d781611de6565b82525050565b60006118e882611ca3565b6118f28185611cae565b9350611902818560208601611e29565b61190b81611eba565b840191505092915050565b6000611923602183611cae565b915061192e82611ecb565b604082019050919050565b6000611946601e83611cae565b915061195182611f1a565b602082019050919050565b6000611969602683611cae565b915061197482611f43565b604082019050919050565b600061198c601783611cae565b915061199782611f92565b602082019050919050565b60006119af601e83611cae565b91506119ba82611fbb565b602082019050919050565b60006119d2601c83611cae565b91506119dd82611fe4565b602082019050919050565b60006119f5602083611cae565b9150611a008261200d565b602082019050919050565b6000611a18600c83611cae565b9150611a2382612036565b602082019050919050565b6000611a3b601f83611cae565b9150611a468261205f565b602082019050919050565b6000611a5e601983611cae565b9150611a6982612088565b602082019050919050565b6000611a81601883611cae565b9150611a8c826120b1565b602082019050919050565b611aa081611e12565b82525050565b611aaf81611e1c565b82525050565b6000602082019050611aca60008301846118bf565b92915050565b6000602082019050611ae560008301846118ce565b92915050565b60006020820190508181036000830152611b0581846118dd565b905092915050565b60006020820190508181036000830152611b2681611916565b9050919050565b60006020820190508181036000830152611b4681611939565b9050919050565b60006020820190508181036000830152611b668161195c565b9050919050565b60006020820190508181036000830152611b868161197f565b9050919050565b60006020820190508181036000830152611ba6816119a2565b9050919050565b60006020820190508181036000830152611bc6816119c5565b9050919050565b60006020820190508181036000830152611be6816119e8565b9050919050565b60006020820190508181036000830152611c0681611a0b565b9050919050565b60006020820190508181036000830152611c2681611a2e565b9050919050565b60006020820190508181036000830152611c4681611a51565b9050919050565b60006020820190508181036000830152611c6681611a74565b9050919050565b6000602082019050611c826000830184611a97565b92915050565b6000602082019050611c9d6000830184611aa6565b92915050565b600081519050919050565b600082825260208201905092915050565b6000611cca82611e12565b9150611cd583611e12565b9250827fffffffffffffffffffffffffffffffffffffffffffffffffffffffffffffffff03821115611d0a57611d09611e5c565b5b828201905092915050565b6000611d2082611e12565b9150611d2b83611e12565b925082611d3b57611d3a611e8b565b5b828204905092915050565b6000611d5182611e12565b9150611d5c83611e12565b9250817fffffffffffffffffffffffffffffffffffffffffffffffffffffffffffffffff0483118215151615611d9557611d94611e5c565b5b828202905092915050565b6000611dab82611e12565b9150611db683611e12565b925082821015611dc957611dc8611e5c565b5b828203905092915050565b6000611ddf82611df2565b9050919050565b60008115159050919050565b600073ffffffffffffffffffffffffffffffffffffffff82169050919050565b6000819050919050565b600060ff82169050919050565b60005b83811015611e47578082015181840152602081019050611e2c565b83811115611e56576000848401525b50505050565b7f4e487b7100000000000000000000000000000000000000000000000000000000600052601160045260246000fd5b7f4e487b7100000000000000000000000000000000000000000000000000000000600052601260045260246000fd5b6000601f19601f8301169050919050565b7f5452414e534645525f414d4f554e545f455843454544535f414c4c4f57414e4360008201527f4500000000000000000000000000000000000000000000000000000000000000602082015250565b7f5452414e534645525f46524f4d5f5448455f5a45524f5f414444524553530000600082015250565b7f4f776e61626c653a206e6577206f776e657220697320746865207a65726f206160008201527f6464726573730000000000000000000000000000000000000000000000000000602082015250565b7f415050524f56455f544f5f5a45524f5f41444452455353000000000000000000600082015250565b7f4445435245415345445f414c4c4f57414e43455f42454c4f575f5a45524f0000600082015250565b7f5452414e534645525f544f5f5448455f5a45524f5f4144445245535300000000600082015250565b7f4f776e61626c653a2063616c6c6572206973206e6f7420746865206f776e6572600082015250565b7f5a45524f5f4445504f5349540000000000000000000000000000000000000000600082015250565b7f5452414e534645525f414d4f554e545f455843454544535f42414c414e434500600082015250565b7f415050524f56455f46524f4d5f5a45524f5f4144445245535300000000000000600082015250565b7f4d494e545f544f5f5448455f5a45524f5f414444524553530000000000000000600082015250565b6120e381611dd4565b81146120ee57600080fd5b50565b6120fa81611e12565b811461210557600080fd5b5056fea264697066735822122034a44ddc8fcf8503b57ebaca7bc2047cc199c2dd7f9f8c313c14fbf1fe40cf9c64736f6c63430008040033",
  "linkReferences": {},
  "deployedLinkReferences": {}
}